:020000040800F2
:1000000000000220B16A0008235F0008295F000891
:10001000315F0008395F0008415F00080000000000
:1000200000000000000000000000000081750108D1
:10003000495F00080000000061770108A977010806
:10004000016B0008016B0008016B0008016B0008E0
:10005000016B0008016B0008016B0008016B0008D0
:10006000016B0008016B0008016B0008555F000878
:10007000695F0008016B0008BD5F0008016B0008A4
:10008000E15F0008016B0008016B0008016B0008CC
:10009000016B0008016B0008016B0008016B000890
:1000A000016B0008016B0008016B0008016B000880
:1000B000F55F0008016B0008016B0008016B000888
:1000C000016B0008016B0008016B0008016B000860
:1000D000016B000809600008016B00089D600008C2
:1000E00009610008016B0008016B0008016B000842
:1000F000016B0008016B0008016B0008016B000830
:10010000016B0008016B0008016B00082161000809
:10011000016B0008016B0008016B0008016B00080F
:1001200035610008016B0008016B0008016B0008D5
:10013000016B000849610008016B0008016B0008B1
:10014000016B0008016B0008016B00085D6100088D
:10015000016B0008016B0008016B00086D6100086D
:10016000016B0008016B0008016B0008016B0008BF
:10017000016B0008016B0008016B00080000000023
:04018000016B000807
:1001900010B5054C237833B9044B13B10448AFF3C1
:1001A00000800123237010BD3802002000000000F1
:1001B000347E030808B5034B1BB103490348AFF372
:1001C000008008BD000000003C020020347E0308CF
:1001D00010F8012B11F8013B012A28BF9A42F7D0F1
:1001E000D01A7047034613F8012B002AFBD1181AC6
:1001F000013870477BB972B90029BEBF00204FF0AB
:10020000004106E008BF00281CBF6FF000414FF01E
:10021000FF3000F0C1B9ADF1080C6DE904CE002942
:1002200009DB002B1ADB00F04DF8DDF804E0DDE916
:10023000022304B07047404261EB4101002B1BDBFD
:1002400000F040F8DDF804E0DDE9022304B04042AC
:1002500061EB4101524263EB43037047524263EB4F
:10026000430300F02FF8DDF804E0DDE9022304B0D9
:10027000404261EB41017047524263EB430300F09F
:1002800021F8DDF804E0DDE9022304B0524263EB1B
:100290004303704753B94AB9002908BF00281CBF5F
:1002A0004FF0FF314FF0FF3000F076B9ADF1080CA0
:1002B0006DE904CE00F006F8DDF804E0DDE9022384
:1002C00004B070472DE9F047089E0D460446884665
:1002D000002B4DD18A42944668D9B2FA82F252B1CB
:1002E00001FA02F3C2F1200120FA01F10CFA02FC3A
:1002F00041EA030894404FEA1C41B8FBF1F71FFAAA
:100300008CFE01FB178807FB0EF0230C43EA084321
:1003100098420AD91CEB030307F1FF3580F01E81D8
:10032000984240F21B81023F63441B1AB3FBF1F079
:1003300001FB103300FB0EFEA4B244EA0344A645C1
:100340000AD91CEB040400F1FF3380F00981A645B3
:1003500040F20681644402380021A4EB0E0440EA16
:1003600007401EB10023D440C6E90043BDE8F08732
:100370008B4208D9002E00F0EE800021C6E900056E
:100380000846BDE8F087B3FA83F100294AD1AB42B1
:1003900002D3824200F2FC80841A65EB0303012041
:1003A0009846002EE2D0C6E90048DFE702B9FFDE3A
:1003B000B2FA82F2002A40F09180A1EB0C000121F8
:1003C0004FEA1C471FFA8CFEB0FBF7F307FB130044
:1003D000250C45EA00450EFB03F0A84208D91CEBAA
:1003E000050503F1FF3802D2A84200F2CE80434651
:1003F0002D1AB5FBF7F007FB10550EFB00FEA4B25B
:1004000044EA0544A64508D91CEB040400F1FF3575
:1004100002D2A64500F2B6802846A4EB0E0440EABC
:1004200003409EE7C1F120078B4022FA07FC4CEA0B
:10043000030C25FA07FA4FEA1C49BAFBF9F820FA2F
:1004400007F309FB18AA8D401FFA8CFE1D4300FA22
:1004500001F308FB0EF02C0C44EA0A44A04202FA15
:1004600001F20BD91CEB040408F1FF3A80F08880FC
:10047000A04240F28580A8F102086444241AB4FB2B
:10048000F9F009FB104400FB0EFEADB245EA04444E
:10049000A64508D91CEB040400F1FF356CD2A64533
:1004A0006AD90238644440EA0840A0FB0295A4EBF4
:1004B0000E04AC42C846AE4656D353D0002E69D087
:1004C000B3EB080264EB0E0422FA01F304FA07F717
:1004D0001F43CC40C6E90074002147E70CFA02FC38
:1004E000C2F1200125FA01F34FEA1C4720FA01F17D
:1004F00095400D43B3FBF7F107FB11331FFA8CFE58
:10050000280C40EA034001FB0EF3834204FA02F494
:1005100008D91CEB000001F1FF382FD283422DD9FE
:1005200002396044C01AB0FBF7F307FB1300ADB209
:1005300045EA004503FB0EF0A84208D91CEB05056F
:1005400003F1FF3816D2A84214D9023B6544281A99
:1005500043EA014138E73146304607E72F46E4E6F3
:100560001846F9E64B45A9D2B9EB020865EB0C0E2B
:100570000138A3E74346EAE7284694E74146D1E736
:10058000D0467BE76444023847E7023B65442FE7E7
:10059000084606E73146E9E6704700BF80B584B0FB
:1005A00000AF3B4600221A605A609A60DA603D4B09
:1005B0003D4A1A603B4B00225A603A4B00229A6037
:1005C000384B01221A61374B01221A76354B002233
:1005D00083F82020334B0022DA62324B334A9A628E
:1005E000304B0022DA602F4B0522DA612D4B0122BD
:1005F00083F830202B4B01225A612A4806F0E4FA96
:100600000346002B01D005F069F904233B60012368
:100610007B600723BB603B461946224806F062FD1B
:100620000346002B01D005F059F905233B60022356
:100630007B603B4619461B4806F054FD0346002BE1
:1006400001D005F04BF906233B6003237B603B465A
:100650001946144806F046FD0346002B01D005F06C
:100660003DF908233B6004237B603B4619460D4857
:1006700006F038FD0346002B01D005F02FF90923C1
:100680003B6005237B603B461946064806F02AFD81
:100690000346002B01D005F021F900BF1037BD46FD
:1006A00080BD00BF54020020002001400100000F67
:1006B00080B58AB000AF786007F1140300221A6099
:1006C0005A609A60DA601A617B681B683C4A934200
:1006D00071D100233B613B4B5B6C3A4A43F480731E
:1006E0005364384B5B6C03F480733B613B690023BC
:1006F000FB60344B1B6B334A43F001031363314BF4
:100700001B6B03F00103FB60FB680023BB602D4BF8
:100710001B6B2C4A43F0020313632A4B1B6B03F041
:100720000203BB60BB6870237B610323BB610023B2
:10073000FB6107F114031946234808F03DFE03232B
:100740007B610323BB610023FB6107F1140319469E
:100750001E4808F031FE1E4B1E4A1A601C4B002238
:100760005A601B4B00229A60194B0022DA60184B2A
:100770004FF480621A61164B4FF400625A61144BB9
:100780004FF400529A61124B4FF48072DA61104BB1
:1007900000221A620E4B00225A620D4807F0A2F89E
:1007A0000346002B01D005F099F87B68084A9A634C
:1007B000074A7B68936300BF2837BD4680BD00BFF2
:1007C00000200140003802400000024000040240C6
:1007D0009C0200201064024080B400AF044BDB6830
:1007E0001B0A03F007031846BD4680BC704700BFD4
:1007F00000ED00E080B483B000AF0346FB7197F9D1
:100800000730002B0BDBFB7903F01F02064997F939
:1008100007305B09012000FA02F241F8232000BFF3
:100820000C37BD4680BC704700E100E080B483B067
:1008300000AF03463960FB7197F90730002B0ADBE4
:100840003B68DAB20C4997F907301201D2B20B4477
:1008500083F800230AE03B68DAB20849FB7903F029
:100860000F03043B1201D2B20B441A7600BF0C37BF
:10087000BD4680BC704700BF00E100E000ED00E035
:1008800080B489B000AFF860B9607A60FB6803F0AB
:100890000703FB61FB69C3F10703042B28BF042393
:1008A000BB61FB690433062B02D9FB69033B00E003
:1008B00000237B614FF0FF32BB6902FA03F3DA4396
:1008C000BB681A407B699A404FF0FF317B6901FA9F
:1008D00003F3D9437B680B40134318462437BD46C6
:1008E00080BC704780B485B000AF7860084B1A6B4D
:1008F00007497B6813430B63054B1A6B7B681340F6
:10090000FB60FB6800BF1437BD4680BC704700BF6A
:100910000038024080B500AF4FF40010FFF7E2FF4F
:100920004FF48000FFF7DEFF002205210B2006F0C8
:1009300095FF0B2006F0BEFFFFF74EFF0346002297
:1009400005211846FFF79CFF034619460C20FFF7C8
:100950006DFF0C20FFF74EFFFFF73EFF034600221E
:1009600005211846FFF78CFF034619460E20FFF7B6
:100970005DFF0E20FFF73EFF00220521102006F04C
:100980006DFF102006F096FF00220521382006F0AA
:1009900065FF382006F08EFF00BF80BD80B400AF39
:1009A000BFF34F8F00BF064BDB6803F4E0620449DE
:1009B000044B1343CB60BFF34F8F00BF00BFFDE775
:1009C00000ED00E00400FA0580B500AF00202CF037
:1009D000FFF90346184680BD80B500AF00202CF01B
:1009E00037FA0346184680BD80B582B000AF786004
:1009F00039603A68796800202CF042FA03461846BC
:100A00000837BD4680BD80B582B000AF78603960E0
:100A10003A68796800202CF057FA034618460837E0
:100A2000BD4680BD80B500AF00202CF079FA0346AA
:100A3000184680BD80B500AF00202CF0F7FA0346C1
:100A4000184680BD80B485B000AFF860B9607A60A8
:100A5000FB68074A1A60BB68064A1A607B684FF455
:100A600080721A6000BF1437BD4680BC704700BF5B
:100A70007420002028210020B0B588B000AF0A4BB8
:100A80003C1D1D460FCD0FC495E8070084E8070004
:100A90003B1D0021184613F0DEFE0346034A136097
:100AA00000BF2037BD46B0BDA07E0308DC1F00207C
:100AB00080B598B002AF7860A84809F0B9F8012273
:100AC0004FF40041A64808F0C9FF07F14403002293
:100AD0001A605A609A60DA601A614FF4C0537B64FE
:100AE0000123BB640023FB6400233B6507F144033F
:100AF00019469C4808F060FC00224FF400619948B8
:100B000008F0ACFF00224FF48051964808F0A6FF91
:100B100015F0B6FE03463B640DF0C6FC0122924977
:100B2000924811F039F903461A46914B1A70904BCE
:100B30001B78002B36D029F043FF03468D4A194617
:100B40008D482AF0B7F84FF4805300938B4B002266
:100B50000721854813F088F803461A46844B1A701B
:100B600001228149814811F017F903461A46804B4A
:100B70001A707F4B1B78002B0BD1814B01221A700E
:100B800029F01EFF03467B4A19467E482AF092F858
:100B900013E029F015FF0346764A19467A482AF0F1
:100BA00089F80AE0764B01221A7029F009FF034602
:100BB000704A194675482AF07DF807F12003002293
:100BC0001946694812F08BFE07F120037049184658
:100BD000FFF7FEFA0346002B0AD029F0F1FE034688
:100BE000644A19466B482AF065F8694812F018FF04
:100BF00007F140034FF4FA71184615F07BFC574893
:100C000009F016F801224FF40061564808F026FF5B
:100C100001224FF48051534808F020FF4FF4C05395
:100C20007B640023BB640023FB6400233B6507F166
:100C3000440319464B4808F0BFFB28F07BFB564B9A
:100C4000BB6002233B73554B3B61554B7B61554B5E
:100C5000BB613223FB6107F10803184628F028FD29
:100C600000225149032028F0EFFF00224F490220C3
:100C700028F0EAFF00224E49002028F0E5FF00227C
:100C80004C49012028F0E0FF14F088F803464A4A56
:100C9000136014F083F80346484A1360052248495C
:100CA000484806F0FDF8642015F0A2FC464B1B688E
:100CB000002B0AD1444B01930423009300234FF4EB
:100CC00000724249424815F0CFFA424B1B68002B94
:100CD0000AD1404B01930523009300234FF4007287
:100CE0003D493E4815F0C0FA3D4B1B68002B0AD128
:100CF0003B4B01930023009300234FF4806239495A
:100D0000394815F0B1FA00220C21022014F0A1FBA1
:100D10000346364A1360364B1B7883F00103DBB27F
:100D2000002B0DD0324B01221A70324828F0CEFF32
:100D300029F046FE03460F4A19462F4829F0BAFF0C
:100D4000002028F029FD1D4B1B680121184614F0D6
:100D500045F90A2013F0CBFDF2E700BFAC2B0020D1
:100D60000004024000000240702E0020742E00207B
:100D700008130020BC7E0308C07E0308080300207F
:100D800009130020EC7E0308247F0308507F03082A
:100D9000787F0308847F0308000000208168010831
:100DA000553D0008693D00083D3E0008693E0008C9
:100DB000A53D0008FD3D000804030020FC020020C2
:100DC0004C1B002054020020C0170020A87F0308FD
:100DD000BD440008A8180020B47F03083518000897
:100DE00000180020C47F0308D50F00080818002051
:100DF000DB1F002054000020D07F030880B582B0A4
:100E000000AF03463960FB71FB79032B06D1054B1C
:100E1000186800230022002114F0C6FB00BF083729
:100E2000BD4680BD0C18002080B582B000AF0346DF
:100E30003960FB71FB79032B06D1054B1868002341
:100E40000022002114F0B0FB00BF0837BD4680BD72
:100E50001018002080B584B000AF03463960FB71E4
:100E6000FB79032B07D1134B1868002300220021C4
:100E700014F09AFB1AE0FB79022B17D13B68FB6058
:100E80000D4B5B68002B0BD00B4B1A68FB685A604C
:100E9000094B5A68FB681A60074B00225A6005E04C
:100EA000FB6800225A60FB6800221A6000BF1037FE
:100EB000BD4680BD141800209C18002090B5A9B034
:100EC00002AF786039603C480DF094FD0346012B79
:100ED00002D139480DF0D4FD07F1580336491846C0
:100EE00012F005F9034687F8973097F89730002BF2
:100EF0005ED100237B6107F1080300221A605A606B
:100F00009A6007F11403002219462C480AF0F0FBFE
:100F100007F108030022194628480AF061FA3B7AD3
:100F20001946BB7D1C467B7D1A46FB7D03F5FA63A3
:100F300007F118000193009223460A46204934F035
:100F4000C1FE07F1180318460DF0D2FBC7F8900058
:100F500029F036FD0146D7F890301A4A1A4829F090
:100F6000A9FED7F8903007F118003A6879680DF0BB
:100F700019FCC7F88C00D7F88C203B689A4209D13D
:100F800029F01EFD014607F118030E4A0F4829F00B
:100F900091FE08E029F014FD014607F11803094A03
:100FA0000B4829F087FE07F15803184612F064F940
:100FB00000BF9C37BD4690BDFC7F0308C02B0020BE
:100FC00000800308BC7E03081880030844800308DF
:100FD00084800308B0B5ADF5DA6D02AF07F5D963CB
:100FE000A3F2C4631860854B07F284641D460FCDDD
:100FF0000FC495E8070084E8070007F2846380497E
:10100000184613F028FC03467E4A1360012015F0B1
:10101000EFFA03F0EBF803220021012014F019FA93
:101020000346794A1360784B1B68002B09D129F0DD
:10103000C7FC0346754A1946754829F03BFEFFF781
:10104000ADFC03220021012014F003FA0346714A8B
:101050001360704B1B68002B09D129F0B1FC0346CB
:101060006A4A19466A4829F025FEFFF797FC0322D1
:101070000021012014F0EDF90346674A1360664B26
:101080001B68002B09D129F09BFC03465F4A1946D7
:101090005F4829F00FFEFFF781FC604B1B78002BA7
:1010A00000F092805E4B1B6818460DF0A3FC0346CF
:1010B000002B08D129F084FC0346544A19465948AC
:1010C00029F0F8FD1EE0564B1B6818460DF092FC07
:1010D0000346012B0ED129F073FC03464B4A1946F7
:1010E000514829F0E7FD514801F0EAFB0A202BF0B6
:1010F00049F807E029F064FC0346444A19464C4885
:1011000029F0D8FD464B1B6880224A4918460DF04D
:10111000E5F90346484A136029F052FC0146454B65
:101120003A4A464829F0C6FD4549424834F050FE47
:10113000C7F8C00643493F4834F04AFE0346424AD6
:101140001360414B1B6806333F4A13603E4B1B68DC
:101150003E49184634F052FE03463B4A1360D7F826
:10116000C016072034F053F803469AB2384B1A8061
:1011700029F026FC0146344B1B68354A1288009240
:10118000224A344829F096FD2F4B1B681846FFF77A
:1011900029F80346284A1360274B1B680E2B08D8F2
:1011A00029F00EFC0346194A19462B4829F082FD06
:1011B0000AE01E4801F084FB29F002FC0346134AB2
:1011C0001946264829F076FD0523C7F8C436244B76
:1011D0001B78022B00F02881022B00F3C281002B28
:1011E00002D0012B40D0BCE11E4B1B78002B00F03D
:1011F000BA811B4B01221A70B5E100BF4485030878
:10120000C8170020041800200C180020BC7E03081A
:10121000C4800308101800201418002009130020AF
:101220001C000020F480030818810308488103088B
:1012300054810308181800202C2500207C81030805
:10124000B0810308B881030898180020C081030802
:1012500018000020C4810308E881030810820308F5
:101260003025002076C30120C0480DF0C3FB0346A3
:10127000012B06D1BD480DF003FC03461A46BC4BBA
:101280001A704FF47A7015F0B3F9BA4B1A6807F177
:1012900008031146184611F02AFF034687F8BB36AB
:1012A00097F8BB36002B40F0B2804AF6C873C7F8F7
:1012B000B43607F10803B049184612F008F803469F
:1012C00087F8BB3697F8BB36002B40F09A80AA4BC4
:1012D0009B7D002B00F09580A74B1B7A03F0100339
:1012E000002BE6D129F06CFB0146A24B1B68A34AF8
:1012F0000092A34AA34829F0DDFC9E4B1B689F4A3D
:101300000092A14A4FF4A071A04834F0A7FC9F4876
:101310000DF0EEF9C7F8B006D7F8B036002BC8DDEF
:1013200029F04EFB0146D7F8B036954A984829F087
:10133000C1FCD7F8B036002BBBD0964B1A6807F526
:10134000197304331146184634F0BCFC07F51973C1
:1013500003F58273904A9149184634F0B3FC904BE0
:101360001A8807F5D963A3F26443A3F8082207F5A6
:10137000D963A3F264438B4A1A6007F5D963A3F2D9
:101380006443012283F80A2207F5D963A3F2644378
:10139000012283F80B22D7F8B02607F5D963A3F210
:1013A0006443C3F80C2207F5D963A3F26443774A78
:1013B000C3F8042207F5197318462AF079FB7A4B13
:1013C0001B68D7F8B416184614F0F2FB0346012B3D
:1013D0000BD129F0F5FA01466C4B694A734829F0A4
:1013E00069FC6A480DF03AFB63E729F0E9FA014627
:1013F000604B1B68614A0092614A6D4829F05AFCB3
:1014000057E707F10803184611F036FF08E029F006
:10141000D7FA0146574B1B68594A664829F04AFCDF
:10142000654B02221A70DEE0644829F043FF034650
:1014300083F00103DBB2002B05D05F4B00221A7052
:101440005F4B00221A7007F14803002219465D48DD
:1014500009F0C6FF07F5D963A3F5D0635B781A4698
:10146000594B5B78D31A1A46D7F8C436934200F228
:10147000B980484B1A6807F15403043347491846AA
:1014800034F020FC464B1A8807F5D963A3F2746345
:10149000A3F8082207F1540303F582734B4A3F492E
:1014A000184634F00FFC07F5D963A3F27463484A79
:1014B0001A6007F5D963A3F27463002283F80A2245
:1014C00007F1540318462AF0F3FA29F079FA034693
:1014D0002B4A19463F4829F0EDFB3F4B1B6841F270
:1014E0008831184614F064FB0346002B24D007F122
:1014F000080340220021184634F072F907F108036E
:1015000018462AF0B5FA29F05BFA014607F10803FC
:101510001B4A324829F0CEFB07F108031946002088
:1015200033F075FEC7F8BC06D7F8BC0602F086FE9D
:101530000523C7F8C4360AE029F042FA0346104AE8
:101540001946274829F0B6FB0123C7F8C4361E49BF
:1015500007F5D963A3F5D0620B4607CA83E80700F5
:1015600040E000BF3FE000BF3DE000BFFC7F03085C
:101570002825002060000020882A00209E2A0020C4
:10158000BC7E0308388203086C82030834250020DF
:1015900074820308981800209C820308BC82030808
:1015A00018000020FD0D00080C180020C082030860
:1015B000088303083483030830250020C81700205F
:1015C00076C30120C02B0020B81F002060830308D1
:1015D000290E00088483030810180020C083030824
:1015E000EC83030800BF814B1B680A228049184620
:1015F00014F0FEF90346002B00F0F08029F0E0F92A
:1016000001467B4B5A687A4B1B6800931346794A14
:10161000794829F04FFB794829F04CFE0346002B0E
:1016200000F0A080764B1968764B1A6807F2744375
:101630000433184634F0ACF829F0C2F90146704B77
:101640001B686C4A704829F035FB29F0B9F901464E
:1016500007F274430433674A6B4829F02BFB6B4B4A
:101660001A8807F5D963A3F51573A3F8082207F2C2
:10167000744303F58273664A6649184634F022FBC8
:1016800007F5D963A3F51573634A1A6007F5D963A3
:10169000A3F51573012283F80A2207F5D963A3F590
:1016A0001573002283F80B22514B5A6807F5D96352
:1016B000A3F51573C3F80C2207F2744318462AF0F9
:1016C000F7F9564B1B6841F28831184614F070FA4E
:1016D0000346002B26D129F073F90346454A1946E3
:1016E0004F4829F0E7FA424B1B685B21184634F05B
:1016F0004EFBC7F8A406D7F8A4360133C7F8A436C2
:101700005D21D7F8A40634F042FBC7F8A006D7F84D
:10171000A026D7F8A436D31A1946D7F8A406FFF79F
:10172000CDFB07E029F04CF90346324A19463D4803
:1017300029F0C0FA2E4B1B7A002B48D029F040F933
:1017400003462C4A1946384829F0B4FA284B1B683E
:10175000184616F06FF9264B00221A60244B00221F
:101760005A6034E029F02CF90346224A19462F48E2
:1017700029F0A0FA1E4B1B685B21184634F007FBCA
:10178000C7F8AC06D7F8AC360133C7F8AC365D21E4
:10179000D7F8AC0634F0FBFAC7F8A806D7F8A826A5
:1017A000D7F8AC36D31A1946D7F8AC06FFF786FB44
:1017B0000F4B1B7A002B0AD00D4B1B68184616F0F6
:1017C00039F90B4B00221A60094B00225A60184B62
:1017D0001B680421184613F001FCF8E4144B1B6845
:1017E0000421184613F0FAFBF1E400BF08180020AA
:1017F0009C180020BC7E03081C840308C817002026
:10180000981800202C2500203C8403081800002094
:101810009C820308BC820308550E0008141800209F
:1018200058840308A4840308CC840308FC840308B8
:10183000FC020020F0B5ADB006AF78604FF4007246
:101840004A494B482AF0D2FC4A4B4B4A9A61494BD1
:1018500000225A62474B494A1A60464B41F288328D
:101860001A62444B464A9A60424B01225A77454BD2
:10187000404A1A60434B444A5A6042482BF062F98E
:101880000023C7F894300023C7F890303F4B404AFC
:101890004049414831F0C4FE3F4833F01CFC002170
:1018A0003D4833F027FC3C4831F0BAFD3A4831F06E
:1018B00092FE3A49384832F099FC374831F049FEF7
:1018C000374BC7F88830D7F88810334832F0F8FC27
:1018D0000346C3F18003DA0F13445B1099B22E4B19
:1018E00093F97E30C3F14003DA0F13445B109AB2D0
:1018F000D7F88830284832F0DBFB274831F03DFE2E
:101900000346002BDCD1244831F0FDFD002387F88D
:101910008F30282387F85830002387F85930002368
:10192000FB65272387F85030002387F851300023C8
:101930007B651C4B1B78002B00F0B6811A4B1B6893
:1019400018460DF057F8034687F8873097F8873028
:10195000012B31D129F034F80346144A19461448B2
:1019600029F0A8F9134800F0ABFF31E0801B0020FC
:101970006C1B00202C00002003580008E9340008EC
:1019800071360008801E0020801D0020A14F000835
:10199000714B0308CC240408E01F0020F81304084E
:1019A000608503080913002020000020BC7E030886
:1019B0006C850308AC85030897F88730022B07D1A4
:1019C00028F0FEFF0346A14A1946A14829F072F902
:1019D000A04B1B6840F2FF129F4918460CF07EFD99
:1019E000C7F88000D7F88030002B00F05D8128F028
:1019F000E7FF0146984B954A984829F05BF99849CA
:101A0000954834F0E5F9F867FB6F002B0AD0FB6FBF
:101A10000B33FB67F96F002033F0F9FB03469AB2F2
:101A2000904B9A8090498C4834F0D2F9F867FB6F5C
:101A3000002B0AD0FB6F0B33FB67F96F002033F0EC
:101A4000E6FB03469AB2874BDA808849824834F035
:101A5000BFF9F867FB6F002B0AD0FB6F0D33FB67F4
:101A6000F96F002033F0D3FB03469AB27D4B1A8006
:101A70007F49794834F0ACF9F867FB6F002B0AD046
:101A8000FB6F0D33FB67F96F002033F0C0FB03469B
:101A90009AB2744B5A8077496F4834F099F9F867D5
:101AA000FB6F002B0AD0FB6F0B33FB67F96F002035
:101AB00033F0ADFB03469AB26A4B1A816E49664811
:101AC00034F086F9F867FB6F002B0AD0FB6F0B33FD
:101AD000FB67F96F002033F09AFB03469AB2614B23
:101AE0005A8166495C4834F073F9F867FB6F002B44
:101AF0000AD0FB6F0B33FB67F96F002033F087FBD5
:101B000003469AB2574B9A815D49534834F060F9C5
:101B1000F867FB6F002B0AD0FB6F0B33FB67F96F85
:101B2000002033F074FB03469AB24E4BDA815549DC
:101B3000494834F04DF9F867FB6F002B0AD0FB6F72
:101B40000B33FB67F96F002033F061FB03469AB259
:101B5000444B1A824C49404834F03AF9F867FB6F1D
:101B6000002B0AD0FB6F0B33FB67F96F002033F0BB
:101B70004EFB03469AB23B4B5A824449364834F0F6
:101B800027F9F867FB6F002B18D0FB6F0F33FB674B
:101B9000F96F002033F03BFB03463D4A13603C4B9A
:101BA0001B68002B02D13A4B3C221A60384B1B6851
:101BB0004FF47A7202FB03F3354A136028F000FFFA
:101BC0000146284BDB881A46264B9B880093134618
:101BD0001E4A304829F06EF828F0F2FE0146214BEB
:101BE0005B881A461F4B1B8800931346174A2A48E6
:101BF00029F060F828F0E4FE01461A4B5B891A468A
:101C0000184B1B8900931346104A244829F052F8B8
:101C100028F0D6FE0146134BDB891A46114B9B89EF
:101C200000931346094A1E4829F044F828F0C8FEDC
:101C300001460C4B5B8A1A460A4B1B8A00931346DB
:101C4000024A184829F036F82EE000BFBC7E03088F
:101C5000BC8503082000002048190020E485030803
:101C60000486030834190020108603081C86030824
:101C70002C8603083C86030848860308548603081C
:101C8000608603086C860308788603088486030848
:101C90002400002094860308C4860308F486030801
:101CA000248703085487030897F88F3083F00103D3
:101CB000DBB2002B05D07A4800F002FE012387F842
:101CC0008F30784B186800230093012301220121F3
:101CD00013F07EF80346002B52D0734B1B7883F031
:101CE0000103DBB2002B4BD001202AF04BFA00F0AD
:101CF0008BFD07F15003184601F0E8FB07F147039D
:101D00000122194669482AF009FB0346002BF5D148
:101D100067482AF072FF72B600BF4FF4807200214C
:101D2000644833F05DFD644B00221A80634B00224F
:101D30001A7036220021624833F052FD362200210B
:101D4000604833F04DFD604B00221A705F4B00225B
:101D50001A705F4B00221A605E4B00221A705E4BB5
:101D600000221A70564BFF2283F82B204E4B012283
:101D70001A7062B600BF04F0F9FE0346574A1360BA
:101D800007F146030122194648482AF0C7FA0346DC
:101D9000002B07D007F146030122194644482AF0D8
:101DA00095FEEDE742482AF028FF4D4B1B78002BAB
:101DB00038D04B4B1B78013BDAB2494B1A70484B79
:101DC0001B78002B22D1424B1B7803F00103DBB2BE
:101DD000002B1BD14349374833F0FAFFB867BB6F7C
:101DE000002B1ED028F0ECFD03463F4A19463F4821
:101DF00028F060FF364A137843F0010313704FF464
:101E0000807200212B4833F0EBFC0AE0304B1B784A
:101E100003F00103DBB2002B04D0274B00221A8011
:101E200000E000BF04F0A2FE78671F4B1B78002B78
:101E300015D02A4B1B687A6FD21A2D4B1B689A4219
:101E40000DD328F0BDFD0346274A1946294828F03E
:101E500031FF154B00221A701E4B01221A7003F03D
:101E6000D0FC3867104B1B78002B00F0AD80224B64
:101E70001B683A6FD31AB3F57A7F40F2A5801E4AE9
:101E80003B6F13600F4B93F8293003F00103DBB273
:101E9000002B35D126222021184800F045FD93E083
:101EA00084870308040300205C1B00206C1B0020B7
:101EB000801E0020A41E0020A41F00202800002057
:101EC000BC180020F4180020481B0020491B0020EB
:101ED0002C1900204A1B002030190020581B00201C
:101EE000561B002090870308BC7E03089C870308CC
:101EF00024000020C4870308A02B0020F4870308D7
:101F00005A4831F08DFA07F120030022194658484B
:101F100009F066FA97F820301A4697F821301946EA
:101F200097F8223007F12C0000930B46514933F00B
:101F3000C9FE51494D4832F059F907F12C031946B1
:101F40004A4832F0BDF90346C3F18003DA0F134467
:101F50005B1099B207F12C030F22444832F0A8F825
:101F6000424831F00AFB0346002BE6D143493F4883
:101F700032F03CF904F0FAFD0246414B1B68D31ADB
:101F800003F2E7333F4AA2FB03239A0907F12C032C
:101F90003D49184633F096FE07F12C0326222021F6
:101FA000324832F085F807F12C03384A3849184690
:101FB00033F088FE07F12C03372205212B4832F03D
:101FC00077F82A4831F09FFA324B1B78002B00F04B
:101FD0007D82314B1B78002B00F0788206222F493E
:101FE0002F4833F0C5FB0346002B61D028F0E8FCF6
:101FF00001462B4B1B781E46294B5B781A46284B13
:102000009B781846264BDB781C46254B1B791D46D2
:10201000234B5B790493039502940190009233461D
:10202000204A214828F046FE1C4B1D4A92E8030036
:10203000186004331980362200211C4833F0D0FB8D
:10204000124A1A4B14461D460FCD0FC40FCD0FC4B4
:102050000FCD0FC495E8030020600434218007F100
:102060005003184601F032FAF8E100BFE01F0020EB
:10207000C02B002000880308F8130408740B040820
:10208000581B0020D34D621010880308F41800205C
:10209000208803082A1900205C1B0020B4180020A7
:1020A000AC180020BC7E030828880308BC18002058
:1020B000BB4B1B78002B40F08683BA4B93F82A3039
:1020C000002B05D0B74B93F82A20B74B83F82A2072
:1020D000B44B93F8283003F00103DBB2002B16D089
:1020E000B14B93F8283003F00103DBB2002B07D18A
:1020F00028F066FC0346AD4A1946AD4828F0DAFDE3
:10210000A94A92F8283043F0010382F82830A54B01
:1021100093F8283003F00203DBB2002B16D0A24B59
:1021200093F8283003F00203DBB2002B07D128F02C
:1021300047FC03469D4A19469E4828F0BBFD9A4A33
:1021400092F8283043F0020382F82830954B93F838
:10215000283003F00403DBB2002B16D0924B93F827
:10216000283003F00403DBB2002B07D128F028FC51
:1021700003468E4A1946904828F09CFD8A4A92F8F8
:10218000283043F0040382F82830864B93F8283037
:1021900003F00803DBB2002B16D0834B93F82830F2
:1021A00003F00803DBB2002B07D128F009FC03463B
:1021B0007E4A1946814828F07DFD7B4A92F82830F6
:1021C00043F0080382F82830764B93F8283003F068
:1021D0001003DBB2002B1BD0734B93F8283003F0B5
:1021E0001003DBB2002B07D128F0EAFB03466F4A4D
:1021F0001946734828F05EFD6B4A92F8283043F088
:10220000100382F828306F4A537843F00803537064
:10221000644B93F8283003F02003DBB2002B1BD073
:10222000614B93F8283003F02003DBB2002B07D179
:1022300028F0C6FB03465D4A1946634828F03AFD7C
:10224000604A537843F010035370574A92F828308D
:1022500043F0200382F82830524B93F8283003F0E3
:102260004003DBB2002B16D04F4B93F8283003F01D
:102270004003DBB2002B07D128F0A2FB03464B4AF8
:102280001946524828F016FD474A92F8283043F084
:10229000400382F82830434B93F8283023F07F0323
:1022A000DBB2002B16D0404B93F8283023F07F038D
:1022B000DBB2002B07D128F083FB03463B4A1946CB
:1022C000434828F0F7FC384A92F8283043F080035E
:1022D00082F82830334B93F8293003F00103DBB246
:1022E000002B16D0304B93F8293003F00103DBB2FA
:1022F000002B07D128F064FB03462C4A19463548C9
:1023000028F0D8FC284A92F8293043F0010382F8DB
:102310002930244B93F8293003F00203DBB2002B61
:1023200016D0214B93F8293003F00203DBB2002BC7
:1023300007D128F045FB03461C4A1946264828F0D9
:10234000B9FC194A92F8293043F0020382F8293087
:10235000144B93F8293003F00403DBB2002B16D0A2
:10236000114B93F8293003F00403DBB2002B07D1A3
:1023700028F026FB03460D4A1946184828F09AFC17
:10238000094A92F8293043F0040382F82930054BBA
:1023900093F8283003F00103DBB2002B20E000BFEC
:1023A00030190020BC180020F4180020BC7E03085F
:1023B000708803089C880308C4880308E888030819
:1023C000108903082C190020388903086089030844
:1023D00088890308B0890308D8890308048A030898
:1023E00014D08F4B93F8283003F00103DBB2002B9D
:1023F00007D128F0E5FA03468A4A19468A4828F0A8
:1024000059FC8A4A937843F001039370844B1B8DE7
:102410004FF6FF72934221D1844B1B7803F00403E3
:10242000DBB2002B1AD128F0CBFA03467D4A1946BD
:102430007F4828F03FFC14F023FA02467D4B1B68CE
:10244000D31AB3F5FA6F09D307F15003184601F018
:102450003DF814F015FA0346764A1360704801F00F
:10246000E5FA03461A46744B1A70744B1B78002B1E
:102470000FD0714B1B78002B0BD028F0A1FA03462C
:10248000684A19466E4828F015FC6E4B01221A70F6
:1024900019E06D4B1B687A6FD21A6C4B1B689A421D
:1024A00011D9664B1B78002B0DD028F089FA034612
:1024B0005C4A1946664828F0FDFB624B01221A70FF
:1024C0005E4B00221A70634B00221A705D4B1B7822
:1024D000002B00F03C81062200215F4833F080F998
:1024E00000225E495E4808F07BFF00225D495C489F
:1024F00009F0FEF85B4B9B78BB765A4B5B787B769A
:10250000584BDB783B76554B1B78073BDBB2FB76B1
:10251000524B5B783B77514B9B787B7707F11803E5
:10252000184601F0B9FD03463D4AC2F832303C4B33
:10253000D3F832204C4B1344394AC2F8323028F0D9
:102540003FFA0146454B1B781846444B5B781A46C8
:10255000424B9B78019300920346324A434828F04D
:10256000A9FB28F02DFA01463E4B9B7818463D4BBF
:102570005B781A463B4BDB78019300920346294A6D
:102580003B4828F097FB28F01BFA0146244BD3F870
:102590003230244A374828F08DFB262387F848300C
:1025A000042387F84930344BFB6407F1480318468D
:1025B00000F08CFF314B93F82B20194B83F82B2024
:1025C000174B2E4A2C332C321268114619800233D5
:1025D000120C1A70124B294A2F332F32118892781D
:1025E00019809A700E4A254B14460FCB84E80F00D1
:1025F0000B4B224A2033203292E803001860043348
:1026000019801F48FDF7EEFD03460A2B3AD9044A0C
:102610001A4B02F1100410330FCB84E80F0036E0A0
:10262000F4180020BC7E0308348A03082C1900200B
:10263000548A0308A42B0020301900205C1B0020C2
:10264000848A03084A1B0020581B00202400002015
:10265000B48A03082A190020B4180020C41F0020DF
:10266000C02B0020D01F002080436D38F88A03085B
:10267000288B0308588B030826190020BC1800205B
:10268000CC18002010220021514833F0A9F84FF453
:10269000806015F00BF9F866FB6E002B3ED04D4BB9
:1026A0001A78FB6E009313464B4A4C494C4801F094
:1026B000D5FF0346BB66FB6EFB60BB6E3B6101232F
:1026C0003B75484B186807F10C010023012212F0FA
:1026D0006BFF0346002B2FD128F072F90346424AC4
:1026E0001946424828F0E6FAFB685B21184633F0A9
:1026F0004EFB78667B6E01337B665D21786E33F02E
:1027000046FB38663A6E7B6ED31A1946786EFEF732
:10271000D5FBFB68184615F08DF90DE028F050F94F
:102720000346314A1946324828F0C4FA4FF47A7009
:1027300013F05EFFFEF732F9274A2949274800F0D7
:1027400033F92C4B00221A702B4B00221A707A6F2F
:10275000D7F89430D31AB3F57A7F07D907F1580325
:10276000184600F0B3FE7B6FC7F89430214B1B78FE
:10277000002B0ED07A6FD7F89030D31A40F2DC528B
:10278000934206D900F086FF7B6FC7F8903001F0C6
:1027900031FA1A4B18680A230093012301220321FE
:1027A00012F016FB0346164A1360154B1B6803F024
:1027B0000303032B02D1134807F03AFA012012F069
:1027C00096F8FFF771BA00BF00BF9C37BD46F0BD59
:1027D0000419002030190020280000202C190020A6
:1027E000F418002008180020BC7E0308888B03081A
:1027F000D48B03085C1B00204A1B0020FC02002035
:1028000000030020AC2B002080B500AF054830F05D
:1028100007FE044830F0DFFE024830F09AFE00BFA9
:1028200080BD00BFE01F002080B582B000AF78609F
:102830001049114831F0DAFC79680F4831F040FD59
:102840000346C3F18003DA0F13445B1099B27B682F
:102850000F22094831F02CFC074830F08EFE034669
:10286000002BE9D1044830F04EFE00BF0837BD46CA
:1028700080BD00BFF8130408E01F002080B584B0BD
:1028800000AFF8607B600B467B8113463B81796823
:102890000A4831F0ABFC3A897989FB68074831F086
:1028A00007FC064830F069FE0346002BF3D10348CD
:1028B00030F029FE00BF1037BD4680BDE01F00206C
:1028C00080B582B000AF7860FFF79EFF1448FFF735
:1028D000ABFF7968134831F0F3FC0346C3F1800382
:1028E000DA0F13445B1099B20E4B93F97E30C3F1AB
:1028F0004003DA0F13445B109BB214339AB27B6827
:10290000084831F0D5FB074830F037FE0346002B6E
:10291000DFD1044830F0F7FD00BF0837BD4680BD69
:1029200060850308E01F002080B58EB002AF78609C
:102930000B467B8013463B8007F10C0300221946AF
:10294000154808F04DFD3B7B1A467B7B1946BB7B47
:1029500007F1180000930B46104933F0B3F907F163
:1029600018031846FFF760FF0D490E4831F03EFC92
:102970003A8879887B680B4831F09AFB094830F037
:10298000FCFD0346002BF3D1064830F0BCFD00BF30
:102990003037BD4680BD00BFC02B00200088030833
:1029A000740B0408E01F002090B5ADF5357D02AF33
:1029B00007F53273A3F52F73186007F53273A3F58B
:1029C0003073196007F53273A3F531731A60002371
:1029D000C7F8C4320023C7F8C032FFF715FF1D4BFC
:1029E0001B78002B44D004F0C1F802461A4B1B6838
:1029F000D31A03F2E733C7F89C32D7F89C32174A50
:102A0000A2FB03239B09C7F89C3207F11403144A65
:102A10001449184633F056F907F11400124B2022DE
:102A20000221FFF72BFF00220221104807F016F8C1
:102A3000012202210D4807F011F8002210210B4855
:102A400007F00CF801221021084807F007F800F001
:102A50001EBD00BF30190020581B0020D34D62104E
:102A6000F4180020F88B0308740B040800140240CB
:102A700007F53273A3F52F731B681B7803F0080367
:102A8000DBB2002B15D107F5CE72D7F8C032134454
:102A9000D24AD349184633F015F903461A46D7F8F7
:102AA000C0321344C7F8C032D7F8C4320133C7F874
:102AB000C43207F53273A3F530731B6893F82830DE
:102AC00003F00103DBB2002B15D107F5CE72D7F866
:102AD000C0321344C34AC249184633F0F3F80346E0
:102AE0001A46D7F8C0321344C7F8C032D7F8C432F8
:102AF0000133C7F8C43207F53273A3F530731B688E
:102B000093F8283003F00803DBB2002B15D107F54A
:102B1000CE72D7F8C0321344B34AB149184633F0E5
:102B2000D1F803461A46D7F8C0321344C7F8C0326A
:102B3000D7F8C4320133C7F8C43207F53273A3F5AE
:102B400030731B6893F8283003F00203DBB2002BCC
:102B500015D107F5CE72D7F8C0321344A34AA04965
:102B6000184633F0AFF803461A46D7F8C03213447C
:102B7000C7F8C032D7F8C4320133C7F8C43207F5FA
:102B80003273A3F530731B6893F8283003F0040305
:102B9000DBB2002B15D107F5CE72D7F8C032134443
:102BA000934A8F49184633F08DF803461A46D7F8F2
:102BB000C0321344C7F8C032D7F8C4320133C7F863
:102BC000C43207F53273A3F530731B6893F82930CC
:102BD00003F00203DBB2002B15D107F5CE72D7F854
:102BE000C0321344834A7E49184633F06BF80346DB
:102BF0001A46D7F8C0321344C7F8C032D7F8C432E7
:102C00000133C7F8C43207F53273A3F530731B687C
:102C100093F8293003F00403DBB2002B15D107F53C
:102C2000CE72D7F8C0321344734A6D49184633F058
:102C300049F803461A46D7F8C0321344C7F8C032E1
:102C4000D7F8C4320133C7F8C43207F53273A3F59D
:102C500030731B6893F8293003F00103DBB2002BBB
:102C600015D107F5CE72D7F8C0321344634A5C49D8
:102C7000184633F027F803461A46D7F8C0321344F3
:102C8000C7F8C032D7F8C4320133C7F8C43207F5E9
:102C90003273A3F52F731B681B7803F00203DBB2BA
:102CA000002B15D107F5CE72D7F8C0321344544A21
:102CB0004B49184633F006F803461A46D7F8C03297
:102CC0001344C7F8C032D7F8C4320133C7F8C4324E
:102CD00007F53273A3F52F731B681B7803F001030C
:102CE000DBB2002B15D107F5CE72D7F8C0321344F2
:102CF000444A3B49184632F0E5FF03461A46D7F8E6
:102D0000C0321344C7F8C032D7F8C4320133C7F811
:102D1000C43207F53273A3F52F731B685B7803F099
:102D20002003DBB2002B15D107F5CE72D7F8C032E5
:102D30001344354A2A49184632F0C4FF03461A465E
:102D4000D7F8C0321344C7F8C032D7F8C4320133C1
:102D5000C7F8C43207F53273A3F52F731B685B788D
:102D600003F04003DBB2002B15D107F5CE72D7F884
:102D7000C0321344254A1A49184632F0A3FF0346CD
:102D80001A46D7F8C0321344C7F8C032D7F8C43255
:102D90000133C7F8C43207F53273A3F531731B68EA
:102DA0001B7803F00103DBB2002B33D107F5CE72A1
:102DB000D7F8C0321344164A0949184632F082FF48
:102DC00003461A46D7F8C0321344C7F8C032D7F8C2
:102DD000C4320133C7F8C4321CE000BF008C0308C2
:102DE000BC820308048C0308088C03080C8C0308BD
:102DF000108C0308148C0308188C03081C8C03081F
:102E0000208C0308248C03082C8C0308348C0308C2
:102E10003C8C030807F53273A3F531731B681B78EC
:102E200003F00203DBB2002B15D107F5CE72D7F801
:102E3000C0321344CE4ACF49184632F043FF03460E
:102E40001A46D7F8C0321344C7F8C032D7F8C43294
:102E50000133C7F8C43207F53273A3F531731B6829
:102E60001B7803F00403DBB2002B15D107F5CE72FB
:102E7000D7F8C0321344C04ABE49184632F022FF88
:102E800003461A46D7F8C0321344C7F8C032D7F801
:102E9000C4320133C7F8C43207F53273A3F5317376
:102EA0001B681B7803F00803DBB2002B15D107F574
:102EB000CE72D7F8C0321344B04AAE49184632F049
:102EC00001FF03461A46D7F8C0321344C7F8C03290
:102ED000D7F8C4320133C7F8C43207F53273A3F50B
:102EE00031731B681B7803F01003DBB2002B15D184
:102EF00007F5CE72D7F8C0321344A14A9D4918464F
:102F000032F0E0FE03461A46D7F8C0321344C7F841
:102F1000C032D7F8C4320133C7F8C43207F5327370
:102F2000A3F531731B681B7803F02003DBB2002B81
:102F300015D107F5CE72D7F8C0321344914A8D49A6
:102F4000184632F0BFFE03461A46D7F8C032134483
:102F5000C7F8C032D7F8C4320133C7F8C43207F516
:102F60003273A3F52F731B681B7803F00403DBB2E5
:102F7000002B15D107F5CE72D7F8C0321344824A20
:102F80007C49184632F09EFE03461A46D7F8C032F6
:102F90001344C7F8C032D7F8C4320133C7F8C4327B
:102FA00007F53273A3F52F731B681B7823F07F039B
:102FB000DBB2002B15D107F5CE72D7F8C03213441F
:102FC000724A6C49184632F07DFE03461A46D7F81D
:102FD000C0321344C7F8C032D7F8C4320133C7F83F
:102FE000C43207F53273A3F52F731B685B7803F0C7
:102FF0000103DBB2002B15D107F5CE72D7F8C03232
:103000001344634A5B49184632F05CFE03461A4695
:10301000D7F8C0321344C7F8C032D7F8C4320133EE
:10302000C7F8C43207F53273A3F52F731B681B78FA
:1030300003F02003DBB2002B15D107F5CE72D7F8D1
:10304000C0321344534A4B49184632F03BFE034604
:103050001A46D7F8C0321344C7F8C032D7F8C43282
:103060000133C7F8C43207F53273A3F52F731B6819
:103070001B7803F04003DBB2002B15D107F5CE72AD
:10308000D7F8C0321344444A3A49184632F01AFE7F
:1030900003461A46D7F8C0321344C7F8C032D7F8EF
:1030A000C4320133C7F8C43207F53273A3F52F7366
:1030B0001B685B7803F00203DBB2002B15D107F528
:1030C000CE72D7F8C0321344344A2A49184632F037
:1030D000F9FD03461A46D7F8C0321344C7F8C03288
:1030E000D7F8C4320133C7F8C43207F53273A3F5F9
:1030F0002F731B685B7823F07F03DBB2002B15D1A5
:1031000007F5CE72D7F8C0321344254A194918463C
:1031100032F0D8FD03461A46D7F8C0321344C7F838
:10312000C032D7F8C4320133C7F8C43207F532735E
:10313000A3F52F731B685B7803F00403DBB2002B4D
:1031400032D107F5CE72D7F8C0321344154A094977
:10315000184632F0B7FD03461A46D7F8C03213447A
:10316000C7F8C032D7F8C4320133C7F8C4321BE005
:10317000448C0308BC8203084C8C0308548C03085D
:103180005C8C0308648C03086C8C0308748C030843
:103190007C8C0308848C03088C8C0308948C0308B3
:1031A0009C8C0308A48C030807F53273A3F53073D5
:1031B0001B6893F8283003F01003DBB2002B15D105
:1031C00007F5CE72D7F8C0321344B34AB349184654
:1031D00032F078FD03461A46D7F8C0321344C7F8D8
:1031E000C032D7F8C4320133C7F8C43207F532739E
:1031F000A3F530731B6893F8283003F02003DBB28B
:10320000002B15D107F5CE72D7F8C0321344A44A6B
:10321000A249184632F056FD03461A46D7F8C03286
:103220001344C7F8C032D7F8C4320133C7F8C432E8
:1032300007F53273A3F530731B6893F8283003F059
:103240004003DBB2002B15D107F5CE72D7F8C032A0
:103250001344944A9149184632F034FD03461A4605
:10326000D7F8C0321344C7F8C032D7F8C43201339C
:10327000C7F8C43207F53273A3F530731B6893F8AF
:10328000283023F07F03DBB2002B15D107F5CE7277
:10329000D7F8C0321344844A8049184632F012FDF0
:1032A00003461A46D7F8C0321344C7F8C032D7F8DD
:1032B000C4320133C7F8C43227F082FB0146D7F885
:1032C000C4327A4A7A4827F0F5FC07F14C034FF4F0
:1032D000A8720021184632F083FA07F5CE73C7F8BA
:1032E000BC320023C7F8B8320023C7F8B4325EE01E
:1032F000002387F8B332002387F8B23225E0D7F8ED
:10330000BC321B78202B04D197F8B332013387F8F5
:10331000B33297F8B2325A1C87F8B2221C46D7F85B
:10332000BC32187807F53273A3F51F71D7F8B822AD
:1033300013465B0013441B010B44234402461A70DE
:10334000D7F8BC320133C7F8BC3297F8B332052B3B
:1033500004D8D7F8BC321B78002BD0D107F14C0130
:10336000D7F8B82213465B0013441B010B441B78AB
:10337000002B17D027F024FB07F14C01D7F8B82217
:1033800013465B0013441B010B440093D7F8B8327B
:10339000464A0146474827F08DFCD7F8B83201333A
:1033A000C7F8B832D7F8B4320133C7F8B432D7F817
:1033B000C0320533404AA2FB03239B08D7F8B4224E
:1033C0009A4295D307F13403D7F8C4223B491846F3
:1033D00032F078FC07F134031846FFF725FA384B32
:1033E000C7F8AC320C23C7F8A8321923C7F8A432A7
:1033F000D7F8B832032B08D8324BC7F8AC320E23BB
:10340000C7F8A8321E23C7F8A4320023C7F8A03299
:1034100020E007F14C01D7F8A02213465B001344CB
:103420001B01C818D7F8A8329BB2D7F8A02292B2D5
:1034300002FB03F39AB2D7F8A4329BB213449AB2B8
:10344000D7F8AC320521FFF719FAD7F8A0320133CB
:10345000C7F8A032D7F8A022D7F8B8329A42D8D30A
:1034600001220221184806F0F9FA0022022116482A
:1034700006F0F4FA01221021134806F0EFFA0022B8
:103480001021114806F0EAFA022028F07BFE07F529
:103490003377BD4690BD00BFAC8C0308BC820308E7
:1034A000B48C0308BC8C0308C48C0308BC7E0308DE
:1034B000CC8C0308F48C0308ABAAAAAA188D0308C5
:1034C000E8FD0308780404080014024080B582B0C7
:1034D00000AF78607968034829F060FB00BF0837C7
:1034E000BD4680BD801E0020F0B589B006AF786073
:1034F0003960534A137843F002031370514B012291
:103500001A703B681B78282B02D0292B71D093E0CE
:103510003B685B684C4A1C46164604F1300C354645
:103520002346186859689A68DB680FC5103410364E
:103530006445F4D1334622461068186092889A8018
:10354000424B414A203292E803001860043319804C
:103550003F4B1B78002B26D03E48FCF743FE03462A
:103560000A2B07D93C4A384B02F1100410330FCB19
:1035700084E80F003448FCF735FE03460A2B12D9C5
:103580003548FCF72FFE0346092B0CD80F222E4995
:10359000314832F0FDF827F013FA01462E4B2F4A3E
:1035A0002F4827F087FB274B1B7883F00103DBB202
:1035B000002B40D027F004FA0146244B1B781E460E
:1035C000224B5B781A46214B9B7818461F4BDB78C1
:1035D0001C461E4B1B791D461C4B5B7904930395BF
:1035E00002940190009233461C4A1E4827F062FB69
:1035F00021E0174B1B78002B14D0114B1B7803F0E4
:103600000403DBB2002B07D127F0DAF90346134A93
:103610001946154827F04EFB094A137843F0040376
:10362000137009E027F0CCF903460C4A19460F48FD
:1036300027F040FB00E000BF00BF0C37BD46F0BDE7
:103640002C1900202A190020BC180020AC180020DA
:103650005C1B0020CC180020F4180020BC7E03085E
:10366000288D03084C8D0308888D0308B48D03084A
:1036700080B582B000AF78600B46FB70FB781946CE
:10368000034829F019FB012318460837BD4680BDC1
:103690000014014080B588B002AF0023BB7525E05F
:1036A000BB7D8A4A32F813301A4640F6E44302FBE7
:1036B00003F3874A82FB03121A44D212DB17D21A91
:1036C000BB7D9B0018333B4443F8182CBB7D9B000B
:1036D00018333B4453F8182CBB7D52009B00183321
:1036E0003B4443F8182CBB7D0133BB75BB7D042BD9
:1036F000D6D90023FB75774B5B881A463B689A4204
:103700001CD83B68734A1288934217D8724B1B78B7
:1037100003F04003DBB2002B07D127F051F9034639
:103720006E4A19466E4827F0C5FA6B4A137843F083
:1037300040031370FB7D0133FB750EE027F040F969
:1037400001463B68634A52881046624A12880192D9
:103750000090624A634827F0ADFA5E4B5B891A46D7
:103760007B689A421CD87B685A4A1289934217D8C0
:10377000594B1B7823F07F03DBB2002B07D127F0D6
:103780001FF90346554A1946574827F093FA524AFB
:10379000137843F080031370FB7D0133FB750EE05B
:1037A00027F00EF901467B684A4A52891046494A79
:1037B000128901920090494A4C4827F07BFA454B08
:1037C000DB891A46BB689A421CD8BB68414A928979
:1037D000934217D8404B5B7803F00103DBB2002B18
:1037E00007D127F0EDF803463C4A1946404827F038
:1037F00061FA394A537843F001035370FB7D01337A
:10380000FB750EE027F0DCF80146BB68314AD2892F
:103810001046304A928901920090304A354827F08C
:1038200049FA2C4B5B8A1A46FB689A421CD8FB6803
:10383000284A128A934217D8274B5B7823F07F03DC
:10384000DBB2002B07D127F0BBF80346234A194609
:10385000294827F02FFA204A537843F08003537009
:10386000FB7D0133FB750EE027F0AAF80146FB68EB
:10387000184A528A1046174A128A01920090174A33
:103880001E4827F017FA134BDB881A463B699A4209
:1038900038D83B690F4A9288934233D80E4B1B7835
:1038A00003F02003DBB2002B07D127F089F8034691
:1038B0000A4A1946124827F0FDF9074A137843F0DF
:1038C00020031370FB7D0133FB752AE04C1B0020A5
:1038D00081000880341900202C190020BC7E0308C8
:1038E000E08D0308048E03083C8E03085C8E0308F9
:1038F000948E0308B48E0308EC8E0308108F03081F
:10390000488F030827F05CF801463B693F4AD2889C
:1039100010463E4A9288019200903D4A3D4827F069
:10392000C9F93D4B1B78C3F38013D9B23A4A537897
:1039300061F341035370FB7D052B31D0364B5B782F
:1039400023F07F03DBB2002B22D0334B1B7803F034
:103950002003DBB2002B1BD02F4B1B7803F040035E
:10396000DBB2002B14D02C4B1B7823F07F03DBB28F
:10397000002B0DD0284B5B7803F00103DBB2002B4A
:1039800006D0254B5B7803F00203DBB2002B07D196
:1039900027F016F803461E4A1946204827F08AF9F0
:1039A0004FF400711E4806F033F80346002B14D183
:1039B000194B5B7803F00403DBB2002B07D126F030
:1039C000FFFF0346124A1946164827F073F9124AB8
:1039D000537843F00403537013E00F4B5B7803F00C
:1039E0000403DBB2002B07D026F0EAFF0346084AA7
:1039F00019460D4827F05EF9074A53786FF38203A2
:103A0000537000BF1837BD4680BD00BF3419002079
:103A1000BC7E03086C8F03082C190020A48F0308B8
:103A2000000C0240CC8F0308F08F030880B582B0F1
:103A300000AF78607B6810331846FCF7D3FB034671
:103A4000092B15D9644B1B7803F00803DBB2002B5C
:103A500008D126F0B5FF01467B6810335F4A604805
:103A600027F028F95C4A137843F0080313700EE03E
:103A7000594B1B7803F00803DBB2002B07D026F06C
:103A80009FFF0346554A1946564827F013F97B68AD
:103A900093F82A30182B19D97B6893F82A30322BE7
:103AA00014D84D4B1B7803F01003DBB2002B07D169
:103AB00026F086FF0346494A19464B4827F0FAF894
:103AC000454A137843F01003137013E0424B1B7800
:103AD00003F01003DBB2002B07D026F071FF034682
:103AE0003E4A1946414827F0E5F83B4A13786FF300
:103AF00004131370384B1B7803F00203DBB2002B66
:103B000064D0354B1B7803F00103DBB2002B5DD092
:103B1000314B5B7803F02003DBB2002B56D02E4BE9
:103B20005B7803F04003DBB2002B4FD02A4B1B78AD
:103B300023F07F03DBB2002B48D0274B5B7803F0E8
:103B40000103DBB2002B41D0234B1B7803F0200391
:103B5000DBB2002B3AD0204B1B7803F04003DBB2E2
:103B6000002B33D01C4B5B7823F07F03DBB2002BA0
:103B70002CD0194B1B7803F00803DBB2002B25D0A7
:103B8000154B1B7803F00403DBB2002B1ED0124B45
:103B90001B7803F01003DBB2002B17D00E4B5B78C1
:103BA00003F00403DBB2002B10D00B4B9B7803F027
:103BB0000103DBB2002B09D026F002FF0346074ABF
:103BC00019460B4827F076F8012300E00023184639
:103BD0000837BD4680BD00BF2C190020BC7E0308FD
:103BE0001890030840900308649003088C90030821
:103BF000B890030880B582B000AF40214E4805F070
:103C000007FF03461A464D4B1A7010214A4805F02B
:103C1000FFFE03461A46494B5A700421464805F0F8
:103C2000F7FE03461A46454B9A704FF480414448CC
:103C300005F0EEFE03461A46404BDA704FF48071F1
:103C4000404805F0E5FE03461A463C4B1A714FF416
:103C500000513C4805F0DCFE03461A46374B5A71CA
:103C60002021354805F0D4FE03461A46334B9A719D
:103C70000821314805F0CCFE03461A462F4BDA7175
:103C80004FF400412E4805F0C3FE03461A462B4B65
:103C90001A7280212B4805F0BBFE03461A46274BBB
:103CA0005A724FF40061274805F0B2FE03461A46E7
:103CB000224B9A724FF48051224805F0A9FE034628
:103CC0001A461E4BDA720023FB712DE0FB791B4A6A
:103CD000D35C002B25D1FB790633184AD35C002B2B
:103CE0001FD1194B1B781A46FB7942FA03F303F0F4
:103CF0000103002B08D126F063FE0146FB79013356
:103D0000124A134826F0D6FF0F4B1B785AB2FB79A4
:103D1000012101FA03F35BB213435BB2DAB20A4B3F
:103D20001A70FB790133FB71FB79052BCED900BFEB
:103D300000BF0837BD4680BD00180240601B002050
:103D4000000C02400010024028000020BC7E030846
:103D5000E890030880B483B000AF786000BF0C37F0
:103D6000BD4680BC7047000080B582B000AF78606F
:103D70007B68002B05D12021094805F049FE034648
:103D800009E07B68012B05D14021054805F040FE84
:103D9000034600E0012318460837BD4680BD00BF3A
:103DA0000014024080B584B000AFF860B9607A605A
:103DB00026F006FE0146FB680D4A0E4826F07AFF03
:103DC000FB68002B06D10C4B1B680121184611F033
:103DD00005F908E0FB68012B05D1074B1B680221A0
:103DE000184611F0FBF800BF1037BD4680BD00BF7C
:103DF000BC7E0308109103080403002080B584B042
:103E000000AFF860B9607A60FB68002B06D10A4BFE
:103E10001B680121184611F0A9F808E0FB68012B86
:103E200005D1054B1B680221184611F09FF800BF11
:103E30001037BD4680BD00BF0403002080B584B0AC
:103E400000AFF860B9607A6026F0BAFD0146FB6801
:103E5000034A044826F02EFF00BF1037BD4680BD40
:103E6000BC7E03084091030880B584B000AFF860C1
:103E7000B9607A6026F0A4FD0346044A1946044856
:103E800026F018FF00BF1037BD4680BDBC7E03087A
:103E90008491030880B487B000AFF860B96013461E
:103EA000FB71F9684D4BA3FB01235A0913461B0113
:103EB0009B1A9B00CA1AD2B2BB685A71FB68474A68
:103EC000A2FB03235B09FB60F968444BA3FB0123BE
:103ED0005A0913461B019B1A9B00CA1AD2B2BB682F
:103EE0001A71FB683D4AA2FB03235B09FB60F9687A
:103EF0003B4BA3FB01231A0913465B001344DB0071
:103F0000CA1AD2B2BB68DA70FB79002B61D0FB68A9
:103F1000334AA2FB03231B09FB8200237B75012389
:103F20007B7440F26D137B827B7D03F00303002BD7
:103F300014D14FF4B7737B827B7D002B05D07B7D42
:103F4000642B02D07B7DC82B08D17B7C013B7B742A
:103F50007B7C002B02D040F26D137B82FA8A7B8A35
:103F60009A4207D3FA8A7B8AD31AFB827B7D01337C
:103F70007B75D6E700BFBB687A7D1A707B8A03F039
:103F80000103002B05D0FB8A3A2B02D9FB8A0133AF
:103F9000FB8201233B740AE03B7C013B114AD35C6A
:103FA0009BB2FA8AD31AFB823B7C01333B743B7C85
:103FB000013B0C4AD35C9BB2FA8A9A42ECD2BB68B2
:103FC0003A7C5A70FB8ADBB20133DAB2BB689A7072
:103FD00000E000BF1C37BD4680BC704789888888D8
:103FE000ABAAAAAA84F3030880B483B000AF3B460F
:103FF00083E803007B78022B04D83B785A1ED2B2A8
:104000003A7001E03B78023BBA78DBB21344DBB292
:10401000BB707B781A4613465B001344DB009B1A87
:104020001A4A82FB03125210DB17D31ADAB2BB789A
:104030001344DAB23B789B08DBB21344DAB23B7824
:104040001349A1FB03135B09DBB2D31ADAB23B7845
:104050000F4981FB0301C911DB17CB1ADBB21344F3
:10406000DBB20433DBB2BB71BA790A4BA3FB021398
:10407000D11A49080B4499080B46DB005B1AD31A86
:10408000DBB218460C37BD4680BC7047398EE3382A
:104090001F85EB512549922480B487B000AF78602A
:1040A00000233B617B681B789BB203F5FA63FB81BD
:1040B000FB8940F26D1202FB03F33B617B681B78C6
:1040C000002B21D0FB890333002B00DA03339B1034
:1040D0001A463B6913443B61FB89013B404A82FB22
:1040E00003125211DB17D31A1A463B699B1A3B6124
:1040F000FB89013B3A4A82FB0312D211DB17D31A28
:104100001A463B6913443B613B69A3F53223A3F292
:1041100075533B617B685B789BB2013BBB8100239D
:10412000FB7509E0FB7D2F4AD35C1A463B691344BB
:104130003B61FB7D0133FB75FB7D9BB2BA899A42E3
:10414000F0D8FB89264AA2FB0312D2094FF4C871AA
:1041500001FB02F29B1A9BB2002B18D0FB8903F0E3
:1041600003039BB2002B0BD1FB891D4AA2FB031258
:104170005209642101FB02F29B1A9BB2002B06D16B
:104180007B685B78022B02D93B69013B3B617B6812
:104190009B781A463B6913443B613B69124A03FB17
:1041A00002F27B68DB7819464FF4616301FB03F38D
:1041B0001A447B681B7919460B461B015B1A9B004E
:1041C00013447A6852791344A3F5A833A3F5C07356
:1041D0003B613B6918461C37BD4680BC704700BF39
:1041E0001F85EB5184F303088051010080B500AFB7
:1041F0000E4B1B7883F00103DBB2002B13D00B4B6B
:1042000001221A70002015F029F80949002015F044
:1042100053F814F0CFFF26F0D3FB0346054A1946A6
:10422000054826F047FD00BF80BD00BFA82B002039
:10423000B4910308BC7E0308C4910308F0B597B09D
:1042400006AF78607B68002B08D126F0B9FB0346E7
:10425000524A1946524826F02DFD9BE026F0B0FB4D
:1042600001467B684D4A4F4826F024FD7B680022BA
:104270001C461546C7E90C4507F13003184631F0D6
:1042800051F9034607F10C041D460FCD0FC40FCDA5
:104290000FC42B68236026F093FB06467D693B69BB
:1042A000FA68B969F86901303C6A04F26C740494E4
:1042B00003900291019200932B46384A31463A48C6
:1042C00026F0F8FC3B6A03F26C73384A82FB031257
:1042D000D111DA178A1A4FF4FA6101FB02F29A1A25
:1042E000D2B2334B1A70FB69DBB20133DAB2304B16
:1042F0005A70BB69DAB22E4B9A707B69DAB22C4BDA
:10430000DA703B69DAB22A4B1A71FB68DAB2284BD1
:104310005A712748FFF7C0FE034603F5C4437033C4
:10432000FB6301222249F86BFFF7B4FD204BDA78DA
:10433000204B1A701E4B1A791E4B5A701C4B5A791F
:104340001C4B9A701A4B1A781B4BDA70184B5A7820
:10435000194B5A70164B9A78174B9A70144B93E876
:104360000300FFF741FE03461A46134B1A70134B26
:10437000104A07CA83E807000F490E4800F022F8E8
:1043800000220C490E4807F02BF800220A490C487D
:1043900007F0AEF900BF4437BD46F0BDBC7E030850
:1043A000F0910308149203084C920308D34D621055
:1043B000D41F0020A81F0020B41F0020B81F002019
:1043C000C02B002080B582B000AF78603960002239
:1043D0007968174806F09EFE0346002B0DD026F0A4
:1043E000EFFA0346134A1946134826F063FC4FF4CC
:1043F0007A7012F0FDF801F071FA002239680C4869
:1044000007F04EF80346002B0DD026F0D9FA0346EC
:10441000084A1946094826F04DFC4FF47A7012F00C
:10442000E7F801F05BFA00BF0837BD4680BD00BF6A
:10443000C02B0020BC7E030890920308BC920308A6
:1044400080B582B000AFFB1C01211846FCF7CCFA06
:1044500078607B68002B04D0FB78184625F028FC98
:10446000F1E700BF0837BD4680BD000080B584B0CD
:1044700000AF786039603A6879680F4827F0D7FE56
:10448000F860FA683B689A4210D23A68FB68D31A1F
:104490001946094828F046F87A68FB68D1183A6846
:1044A000FB68D31A1A46044827F0C1FE3B68184639
:1044B0001037BD4680BD00BF7426002080B586B091
:1044C00004AF78602EF0A0FD03461A46084B1A7020
:1044D000084B0293084B01930123009300234FF4F0
:1044E00080720649064811F063FE2BF0FDFAFCE7E6
:1044F000C41700200C1700200C130020E8920308BA
:104500000545000880B594B000AF7860244826F0D7
:104510001FFE26F055FA0346224A1946224826F085
:10452000C9FB4FF480622149214827F05FFEFCF768
:104530004BFA0346002B22D0FCF74EFA0346002B21
:104540001DD0FFF77DFF1AE0FCF774FAF864FB6CEE
:104550003F2B01D94023FB6407F10803FA6C19468D
:10456000134827F0DBFEB864BB6C002B0DD007F1BD
:104570000803B96C1846FCF746FAFCF753FAFCF747
:1045800023FA0346002BDFD100E000BF094B1B6874
:104590000221184610F022FD012012F029F8C6E78A
:1045A0006D440008BC7E0308EC92030888260020B6
:1045B00074260020FC02002080B58AB004AF0346B8
:1045C000FB7100237B6100233B610023FB60FB79CF
:1045D000002B0AD01B4816F059FD26F0F1F90346CE
:1045E000194A1946194826F065FB07F10C0307F133
:1045F000100207F11401164802901648019000209D
:104600000090104816F08AFB0E4816F08DFD1249F6
:104610000C4816F035FE0B4B93F831309B0803F035
:104620000103DBB2002B03D0064816F08BFD02E03D
:10463000044816F0F3FD034826F00CFE00BF1837BF
:10464000BD4680BDC8170020BC7E03081493030834
:104650005D7E0108A1F30008E1B10208F0B591B058
:1046600004AFF860B9607A60FB7000237B85AB4BC8
:104670007B62AB4B3B62B7F92A30BA6CD018FB684F
:10468000D3F832301A46A74931F01CFB03469AB2E0
:104690007B8D13449BB27B85A34B07F110040FCB9A
:1046A00084E80F00FB69FB62FB6893F82B30022B58
:1046B00008D8FB6893F82B309B0030333B4453F809
:1046C000203CFB62B7F92A30BA6C1344FA6A974966
:1046D000184631F0F7FA03469AB27B8D13449BB229
:1046E0007B85B7F92A30BA6CD018FB6893F82C3068
:1046F0001A46FB6893F82D301946FB6893F82E3064
:1047000000930B468A4931F0DDFA03469AB27B8D5D
:1047100013449BB27B85B7F92A30BA6CD018FB687A
:1047200093F82F301A46FB6893F830301946FB682F
:1047300093F8313000930B467E4931F0C3FA0346BB
:104740009AB27B8D13449BB27B85B7F92A30BA6C41
:104750001344FA687849184631F0B4FA03469AB21D
:104760007B8D13449BB27B85B7F92A30BA6CD01885
:10477000FB6893F820301D46FB6893F821301E46F5
:10478000FB6893F822301A46FB6893F823301946E9
:10479000FB6893F824301C46FB6893F8253003939C
:1047A00002940191009233462A46644931F08AFA14
:1047B00003469AB27B8D13449BB27B85B7F92A30AE
:1047C000BA6C13445E49184631F07CFA03469AB23B
:1047D0007B8D13449BB27B85B7F92A30BA6CD01815
:1047E000BB681B7803F00803DBB2002B01D07B6AA7
:1047F00000E03B6A1A46534931F064FA03469AB224
:104800007B8D13449BB27B85B7F92A30BA6CD018E4
:10481000BB685B7803F00203DBB2002B01D07B6A3C
:1048200000E03B6A1A46484931F04CFA03469AB216
:104830007B8D13449BB27B85B7F92A30BA6CD018B4
:10484000FB6893F8283003F00103DBB2002B01D0A2
:104850007B6A00E03B6A1A463C4931F033FA034672
:104860009AB27B8D13449BB27B85B7F92A30BA6C20
:10487000D018FB6893F8283003F00203DBB2002B5A
:1048800001D07B6A00E03B6A1A46314931F01AFADE
:1048900003469AB27B8D13449BB27B85B7F92A30CD
:1048A000BA6CD018FB6893F8283003F00803DBB229
:1048B000002B01D07B6A00E03B6A1A46254931F0A3
:1048C00001FA03469AB27B8D13449BB27B85B7F9FC
:1048D0002A30BA6CD018FB6893F8293003F0020331
:1048E000DBB2002B01D07B6A00E03B6A1A461A4912
:1048F00031F0E8F903469AB27B8D13449BB27B8575
:10490000B7F92A30BA6CD018FB6893F8293003F055
:104910000403DBB2002B21D07B6A20E03C93030828
:10492000449303084C930308B09503086493030869
:104930007893030898930308B8930308C89303086F
:10494000F0930308049403081094030820940308C8
:104950002C94030838940308489403083B6A1A46C9
:104960009D4931F0AFF903469AB27B8D13449BB257
:104970007B85B7F92A30BA6CD018FB6893F82930D8
:1049800003F00103DBB2002B01D07B6A00E03B6A3D
:104990001A46924931F096F903469AB27B8D134438
:1049A0009BB27B85B7F92A30BA6CD018FB6893F8B4
:1049B000283003F01003DBB2002B01D07B6A00E04B
:1049C0003B6A1A46864931F07DF903469AB27B8DDF
:1049D00013449BB27B85B7F92A30BA6CD018FB68B8
:1049E00093F8283003F02003DBB2002B01D07B6A60
:1049F00000E03B6A1A467B4931F064F903469AB2FB
:104A00007B8D13449BB27B85B7F92A30BA6CD018E2
:104A1000FB6893F8283003F04003DBB2002B01D091
:104A20007B6A00E03B6A1A466F4931F04BF9034656
:104A30009AB27B8D13449BB27B85B7F92A30BA6C4E
:104A4000D018FB6893F8283023F07F03DBB2002BEB
:104A500001D07B6A00E03B6A1A46644931F032F9C2
:104A600003469AB27B8D13449BB27B85B7F92A30FB
:104A7000BA6CD018BB681B7803F01003DBB2002BB4
:104A800001D07B6A00E03B6A1A46594931F01AF9B5
:104A900003469AB27B8D13449BB27B85B7F92A30CB
:104AA000BA6CD018BB685B7803F00803DBB2002B4C
:104AB00001D07B6A00E03B6A1A464E4931F002F9A8
:104AC00003469AB27B8D13449BB27B85B7F92A309B
:104AD000BA6CD018BB685B7803F01003DBB2002B14
:104AE00001D07B6A00E03B6A1A46434931F0EAF89C
:104AF00003469AB27B8D13449BB27B85B7F92A306B
:104B0000BA6CD018BB685B7803F02003DBB2002BD3
:104B100001D07B6A00E03B6A1A46384931F0D2F88E
:104B200003469AB27B8D13449BB27B85B7F92A303A
:104B3000BA6CD018BB685B7803F04003DBB2002B83
:104B400001D07B6A00E03B6A1A462D4931F0BAF881
:104B500003469AB27B8D13449BB27B85B7F92A300A
:104B6000BA6CD018BB681B7803F00403DBB2002BCF
:104B700001D07B6A00E03B6A1A46224931F0A2F874
:104B800003469AB27B8D13449BB27B85B7F92A30DA
:104B9000BA6CD018BB681B7803F02003DBB2002B83
:104BA00001D07B6A00E03B6A1A46174931F08AF867
:104BB00003469AB27B8D13449BB27B85B7F92A30AA
:104BC000BA6CD018BB681B7823F07F03DBB2002BD4
:104BD0001CD07B6A1BE000BF589403086C94030848
:104BE0008094030890940308A0940308B0940308E9
:104BF000C0940308D4940308E4940308F4940308CD
:104C00000495030814950308249503083B6A1A4683
:104C1000714931F057F803469AB27B8D13449BB229
:104C20007B85B7F92A30BA6CD018BB685B7803F083
:104C30000103DBB2002B01D07B6A00E03B6A1A461D
:104C4000664931F03FF803469AB27B8D13449BB21C
:104C50007B85B7F92A30BA6CD018BB685B7823F033
:104C60007F03DBB2002B01D07B6A00E03B6A1A466F
:104C70005B4931F027F803469AB27B8D13449BB20F
:104C80007B85B7F92A30BA6CD0187B681B7803F0A3
:104C90000103DBB2002B01D07B6A00E03B6A1A46BD
:104CA000504931F00FF803469AB27B8D13449BB202
:104CB0007B85B7F92A30BA6CD0187B681B7803F073
:104CC0000203DBB2002B01D07B6A00E03B6A1A468C
:104CD000454930F0F7FF03469AB27B8D13449BB2EF
:104CE0007B85B7F92A30BA6CD0187B681B7803F043
:104CF0000403DBB2002B01D07B6A00E03B6A1A465A
:104D00003A4930F0DFFF03469AB27B8D13449BB2E1
:104D10007B85B7F92A30BA6CD0187B681B7803F012
:104D20000803DBB2002B01D07B6A00E03B6A1A4625
:104D30002F4930F0C7FF03469AB27B8D13449BB2D4
:104D40007B85B7F92A30BA6CD0187B681B7803F0E2
:104D50001003DBB2002B01D07B6A00E03B6A1A46ED
:104D6000244930F0AFFF03469AB27B8D13449BB2C7
:104D70007B85B7F92A30BA6CD0187B681B7803F0B2
:104D80002003DBB2002B01D07B6A00E03B6A1A46AD
:104D9000194930F097FF03469AB27B8D13449BB2BA
:104DA0007B85B7F92A30BA6CD018FB78002B01D07C
:104DB0007B6A00E03B6A1A46104930F083FF0346E5
:104DC0009AB27B8D13449BB27B85B7F92A30184683
:104DD0003437BD46F0BD00BF309503083C9503084D
:104DE0004895030854950308609503086C950308DB
:104DF0007895030884950308909503089C9503080B
:104E000080B582B000AF7860396039687868FFF7A4
:104E10002DFB00BF0837BD4680BD80B584B000AF14
:104E200078607868FBF7DEF9F860F9687868FFF772
:104E30001DFBFB6818461037BD4680BD80B582B0AB
:104E400000AF0346FB71FB1D01221946034827F002
:104E5000EEF900BF0837BD4680BD00BF6C1B0020C7
:104E600080B483B000AF0346FB710C4B05221A706F
:104E70000B4B1B885A1C91B2094A11801946094AEA
:104E8000FB795354064B1B88FE2B02D9044B00229E
:104E90001A8000BF0C37BD4680BC7047561B0020EF
:104EA000A41F0020A41E002080B483B000AF0346DE
:104EB000FB80FB88B3F5005F17D11C4B1B780133D7
:104EC000DAB21A4B1A70194B1B78012B28D9184AE1
:104ED000537843F020035370154A537843F040034E
:104EE0005370124B00221A701AE0FB88B3F5804F02
:104EF00016D10E4B1B780133DAB20C4B1A700B4BE8
:104F00001B78012B0CD90B4B00221A70084A5378DE
:104F100043F020035370064A537843F04003537024
:104F200000BF0C37BD4680BC704700BF481B002047
:104F30002C190020491B002080B582B000AF78609A
:104F400025F03EFD01467B68054A064825F0B2FE85
:104F5000786811F04DFB00BF0837BD4680BD00BF2B
:104F6000BC7E0308E495030880B485B000AF786088
:104F70000023FB6008E000BF00BF00BF00BF00BF10
:104F800000BFFB680133FB607B685B00FA689A42F4
:104F9000F1D300BF00BF1437BD4680BC704700008E
:104FA00080B586B000AFF8607B600B46FB7213469D
:104FB000BB72FB7A283B2B2B00F2478101A252F8EF
:104FC00023F000BF75500008815000088B50000886
:104FD000AF500008BF5000084B5200084B52000869
:104FE0004B5200084B5200084B5200084B5200082D
:104FF0004B5200084B5200084B5200084B5200081D
:105000004B5200084B5200084B5200084B5200080C
:105010004B5200084B5200084B5200084B520008FC
:105020004B520008C9500008E7500008055100081D
:1050300023510008415100085F51000881510008C8
:10504000A3510008C5510008E751000805520008A7
:105050005F5200084B5200084B5200084B520008A8
:105060004B520008235200082D5200083752000806
:1050700041520008012208217C4804F0EFFCEFE0D7
:10508000BB7A1846FFF758FFEAE000237B6104E093
:1050900000BF00BF7B6901337B61BB7A4FF416729E
:1050A00002FB03F31A467B699A42F1D8D8E0BB7A37
:1050B000642202FB03F31846FFF756FFD0E0BB7AE9
:1050C0001846FFF751FFCBE0BB7A002B05D000223A
:1050D0000421674804F0C2FCC2E0012204216448B4
:1050E00004F0BCFCBCE0BB7A002B05D000220821F8
:1050F0005F4804F0B3FCB3E0012208215C4804F0EF
:10510000ADFCADE0BB7A002B05D000221021584841
:1051100004F0A4FCA4E001221021554804F09EFCF8
:105120009EE0BB7A002B05D000222021504804F0DD
:1051300095FC95E0012220214D4804F08FFC8FE082
:10514000BB7A002B05D000224021494804F086FCA0
:1051500086E001224021464804F080FC80E0BB7AD2
:10516000002B06D000224FF40051424804F076FC98
:1051700076E001224FF400513E4804F06FFC6FE0EE
:10518000BB7A002B06D000224FF48041394804F04E
:1051900065FC65E001224FF48041364804F05EFC76
:1051A0005EE0BB7A002B06D000224FF4004131486C
:1051B00004F054FC54E001224FF400412D4804F067
:1051C0004DFC4DE0BB7A002B06D000224FF400715D
:1051D000294804F043FC43E001224FF400712648C3
:1051E00004F03CFC3CE0BB7A002B05D001220121FD
:1051F0001F4804F033FC33E0002201211C4804F076
:105200002DFC2DE0BB7A002B05D00022022118488E
:1052100004F024FC24E001220221154804F01EFCC5
:105220001EE0FB68002283F8272019E0FB680022BB
:1052300083F8272014E0FB68002283F827200FE082
:10524000FB68002283F827200AE025F0B9FB01461D
:10525000FB7A0A4A0A4825F02DFD002301E000BF31
:10526000012318461837BD4680BD00BF000002402C
:10527000001002400008024000040240BC7E030807
:105280000896030880B58EB000AF07F12403002212
:105290001A605A609A60DA601A6100233B62B54B6B
:1052A0001B6BB44A43F010031363B24B1B6B03F048
:1052B00010033B623B6A0023FB61AE4B1B6BAD4AA4
:1052C00043F004031363AB4B1B6B03F00403FB615C
:1052D000FB690023BB61A74B1B6BA64A43F020036D
:1052E0001363A44B1B6B03F02003BB61BB6900235A
:1052F0007B61A04B1B6B9F4A43F0800313639D4B64
:105300001B6B03F080037B617B6900233B61994B3E
:105310001B6B984A43F001031363964B1B6B03F01E
:1053200001033B613B690023FB60924B1B6B914A7D
:1053300043F0020313638F4B1B6B03F00203FB600C
:10534000FB680023BB608B4B1B6B8A4A43F0400316
:105350001363884B1B6B03F04003BB60BB680023E7
:105360007B60844B1B6B834A43F008031363814BC0
:105370001B6B03F008037B607B6800227F217E4863
:1053800004F06CFB00224FF460417C4804F066FBA3
:10539000002201217A4804F061FB002248F61E2118
:1053A000774804F05BFB01220821764804F056FBA5
:1053B00000220321744804F051FB01224FF4014103
:1053C000724804F04BFB00224FF401416D4804F099
:1053D00045FB002208216E4804F040FB01224FF4F7
:1053E0008051694804F03AFB00224FF4007167488D
:1053F00004F034FB7F237B620123BB620123FB6249
:1054000000233B6307F1240319465B4803F0D4FFF4
:105410004FF460437B620123BB620123FB620023E4
:105420003B6307F124031946544803F0C5FF0123E9
:105430007B620123BB620123FB6200233B6307F114
:10544000240319464E4803F0B7FF48F61E237B623B
:105450000123BB620023FB6200233B6307F12403AB
:105460001946474803F0A8FF60237B620023BB6214
:105470000123FB6207F124031946414803F09CFF16
:105480004FF4C0737B620323BB620023FB6207F10E
:10549000240319463A4803F08FFF08237B62012357
:1054A000BB620123FB6200233B6307F1240319461F
:1054B000344803F081FF04237B620123BB62002395
:1054C000FB6207F124031946304803F075FF4FF4DF
:1054D000C0437B624FF48813BB620023FB6207F179
:1054E00024031946264803F067FF03237B62012348
:1054F000BB620023FB6200233B6307F124031946D0
:10550000214803F059FF4FF466537B620023BB62CE
:105510000023FB6207F124031946174803F04CFFF0
:105520004FF440437B620323BB620023FB6207F11D
:1055300024031946104803F03FFF4FF400437B62F9
:105540000123BB620023FB6200233B6307F12403BA
:1055500019460E4803F030FF4FF480737B6203233B
:10556000BB620023FB6207F124031946084803F0DD
:1055700023FF0FE000380240001002400008024004
:1055800000140240000002400018024000040240E3
:10559000000C02404FF472437B620023BB62002385
:1055A000FB6207F124031946384803F005FF7C230A
:1055B0007B620023BB620023FB6207F124031946D0
:1055C000334803F0F9FE4FF470637B620323BB6240
:1055D0000023FB6207F1240319462E4803F0ECFE7A
:1055E0004FF480737B620123BB620223FB620023C2
:1055F0003B6307F124031946274803F0DDFE4FF40F
:1056000000437B620123BB620023FB6200233B63F8
:1056100007F124031946204803F0CEFE08237B62DD
:105620000123BB620023FB6200233B6307F12403D9
:105630001946164803F0C0FE4FF480537B620123E5
:10564000BB620123FB6200233B6307F1240319467D
:105650000F4803F0B1FE4FF440737B620123BB623D
:105660000123FB6200233B6307F1240319460B4827
:1056700003F0A2FE00220521282002F0EFF82820E6
:1056800002F018F900BF3837BD4680BD000C02405B
:1056900000180240000802400000024000040240DE
:1056A00080B500AF094B0A4A1A60084B06225A60BF
:1056B000064B40F6A6629A60044804F041FA03469D
:1056C000002B01D000F00AF900BF80BDAC2B0020F8
:1056D0000030004080B500AF164B00221A6001F088
:1056E00011FA00F02FF8FFF7CDFDFBF713F9FFF7E4
:1056F000D7FF00F081F9FAF751FF01F00FF801F040
:105700008BF800F0FBF801200FF01AFF03460A4A5D
:105710001360094B18680023002200210FF044FF9A
:105720000649074825F038F9FBF7A6F90FF07CF891
:10573000FEE700BF6C000020BC2B002011580008C1
:105740000358000880B596B000AF07F12803302257
:105750000021184630F044F807F1140300221A60C3
:105760005A609A60DA601A613B4600221A605A60F9
:105770009A60DA601A610923BB620123FB6201238C
:10578000FB6302233B644FF480037B640823BB6408
:10579000F023FB6402233B6505237B6507F12803A7
:1057A000184604F0DBFB0346002B01D000F096F80E
:1057B0000F237B610223BB610023FB614FF4A053E5
:1057C0003B624FF480537B6207F1140303211846B8
:1057D00004F0C2FE0346002B01D000F07FF8042342
:1057E0003B604FF40073FB603B46184605F0ACF994
:1057F0000346002B01D000F071F800BF5837BD46BA
:1058000080BD80B500AF01F0B1F90346184680BDF8
:1058100080B582B000AF03463960FB71FB79002B85
:105820000CD00C4B1B683968184610F0C1F90346C0
:10583000002B14BF01230023DBB207E0054B1868DF
:105840000023002200210FF0AFFE01231846083785
:10585000BD4680BDBC2B002080B582B000AF786013
:105860007B681B68B3F1804F01D101F06DF926F020
:105870000BFC164B1B8801339AB2144B1A804FF461
:105880000071134804F01CF9104B1B88642B18D1CD
:105890000E4B00221A804FF400410D4804F010F91D
:1058A00004210C4804F00CF94FF40061084804F09E
:1058B00007F90121084804F003F90221064804F021
:1058C000FFF800BF0837BD4680BD00BFB82B0020E1
:1058D00000140240000402400018024080B400AFEF
:1058E00072B600BFFEE780B582B000AF7860396065
:1058F000FFF7F4FF00BF0837BD4680BD80B584B018
:1059000000AF3B1D00221A605A609A6000233B6082
:1059100001212C4806F032F8034641F2342293422A
:105920004BD0284B284A1A60264B00225A60254B40
:105930007D229A60234BFF22DA60224B00221A61FB
:10594000204B00225A611F4B00229A611D4805F02E
:1059500007FB0346002B01D0FFF7C0FF00233B717C
:1059600000237B710023BB710023BB600023FB601D
:105970003B1D00221946134805F0CCFB0346002BC3
:1059800001D0FFF7ABFF01233B7001237B700123A4
:10599000BB700023FB703B4600221946094805F006
:1059A0007FFD0346002B01D0FFF798FF41F2342220
:1059B0000121044805F086FF00E000BF1037BD4616
:1059C00080BD00BFC02B00200028004080B483B001
:1059D00000AF78607B681B68054A934202D1054B93
:1059E00001221A6000BF0C37BD4680BC704700BF63
:1059F000002800403C0E474280B500AF174B184AC4
:105A00001A60164B4FF482725A60144B00229A604F
:105A1000124B0022DA60114B00221A610F4B002258
:105A20005A610E4B4FF400729A610C4B0022DA61FE
:105A30000A4B00221A62094B00225A62074B0022CD
:105A40009A62064B0A22DA62044805F0F1FF034627
:105A5000002B01D0FFF742FF00BF80BDE02B0020EC
:105A6000003C004080B58AB000AF786007F11403B5
:105A700000221A605A609A60DA601A617B681B68BB
:105A80004A4A934240F08E8000233B61484B1B6C96
:105A9000474A43F400431364454B1B6C03F4004333
:105AA0003B613B690023FB60414B1B6B404A43F069
:105AB000020313633E4B1B6B03F00203FB60FB68A6
:105AC00038237B610223BB610023FB6103233B621C
:105AD00006237B6207F114031946364803F06CFC79
